:020000040800F2
:1000000000500020B1010008F5010008F5010008CA
:10001000F5010008F5010008F501000800000000E6
:10002000000000000000000000000000F5010008D2
:10003000F501000800000000F5010008F5010008C6
:10004000F5010008F5010008F5010008F5010008B8
:10005000F5010008F5010008F5010008F5010008A8
:10006000F5010008F5010008F5010008F501000898
:10007000F5010008F5010008F5010008F501000888
:10008000F5010008F5010008F5010008F501000878
:10009000F5010008F5010008F5010008F501000868
:1000A000F5010008F5010008F5010008F501000858
:1000B000F5010008F5010008F5010008F501000848
:1000C000F5010008F5010008F5010008F501000838
:1000D000F5010008F5010008F5010008F501000828
:1000E000F5010008F5010008F50100080000000016
:1000F0000000000000000000000000000000000000
:0C01000000000000000000005FF808F1A3
:10010C0010B5054C237833B9044B13B10448AFF345
:10011C0000800123237010BD0000002000000000AF
:10012C004002000808B5034B1BB103490348AFF369
:10013C00008008BD00000000040000204002000800
:10014C00002201E000BF01324FF47A7300FB03F38D
:10015C009342F7D87047000008B5104A936943F0F2
:10016C00100393610E4B5A6822F4E0025A605A68ED
:10017C0042F400125A600A4CE36823F40053E36023
:10018C004FF4FA70FFF7DCFFE36843F40053E360CD
:10019C004FF4FA70FFF7D4FFEDE700BF00100240F8
:1001AC00001001400B480C490C4A002302E0D458C3
:1001BC00C4500433C4188C42F9D3094A094C0023A7
:1001CC0001E013600432A242FBD300F00FF8FFF7FA
:1001DC00C3FF7047000000200000002060020008F0
:1001EC00000000201C000020FEE7000070B5002677
:1001FC000C4D0D4C641BA410A64209D100F01AF84A
:10020C0000260A4D0A4C641BA410A64205D170BDF1
:10021C0055F8043B98470136EEE755F8043B9847F0
:10022C000136F2E75802000858020008580200088C
:10023C005C020008F8B500BFF8BC08BC9E467047CD
:0C024C00F8B500BFF8BC08BC9E46704727
:040258003101000868
:04025C000D01000888
:04000005080001B13D
:00000001FF
